{
  "contractName": "Faucet",
  "abi": [
    {
      "anonymous": false,
      "inputs": [
        {
          "indexed": false,
          "internalType": "uint256",
          "name": "numOffFunders",
          "type": "uint256"
        },
        {
          "indexed": false,
          "internalType": "address",
          "name": "owner",
          "type": "address"
        },
        {
          "indexed": false,
          "internalType": "uint256",
          "name": "amount",
          "type": "uint256"
        }
      ],
      "name": "AddFund",
      "type": "event"
    },
    {
      "anonymous": false,
      "inputs": [
        {
          "indexed": false,
          "internalType": "uint256",
          "name": "numOffFunders",
          "type": "uint256"
        },
        {
          "indexed": false,
          "internalType": "address",
          "name": "owner",
          "type": "address"
        },
        {
          "indexed": false,
          "internalType": "uint256",
          "name": "amount",
          "type": "uint256"
        }
      ],
      "name": "WithDrawFund",
      "type": "event"
    },
    {
      "inputs": [],
      "name": "numOffFunders",
      "outputs": [
        {
          "internalType": "uint256",
          "name": "",
          "type": "uint256"
        }
      ],
      "stateMutability": "view",
      "type": "function",
      "constant": true
    },
    {
      "inputs": [],
      "name": "owner",
      "outputs": [
        {
          "internalType": "address",
          "name": "",
          "type": "address"
        }
      ],
      "stateMutability": "view",
      "type": "function",
      "constant": true
    },
    {
      "stateMutability": "payable",
      "type": "receive",
      "payable": true
    },
    {
      "inputs": [
        {
          "internalType": "uint256",
          "name": "amount",
          "type": "uint256"
        }
      ],
      "name": "addFunds",
      "outputs": [],
      "stateMutability": "payable",
      "type": "function",
      "payable": true
    },
    {
      "inputs": [
        {
          "internalType": "uint256",
          "name": "withdrawAmount",
          "type": "uint256"
        }
      ],
      "name": "withdraw",
      "outputs": [],
      "stateMutability": "nonpayable",
      "type": "function"
    },
    {
      "inputs": [],
      "name": "getAllFunders",
      "outputs": [
        {
          "internalType": "address[]",
          "name": "",
          "type": "address[]"
        }
      ],
      "stateMutability": "view",
      "type": "function",
      "constant": true
    },
    {
      "inputs": [
        {
          "internalType": "uint8",
          "name": "index",
          "type": "uint8"
        }
      ],
      "name": "getFunderAtIndex",
      "outputs": [
        {
          "internalType": "address",
          "name": "",
          "type": "address"
        }
      ],
      "stateMutability": "view",
      "type": "function",
      "constant": true
    }
  ],
  "bytecode": "0x608060405234801561001057600080fd5b50336000806101000a81548173ffffffffffffffffffffffffffffffffffffffff021916908373ffffffffffffffffffffffffffffffffffffffff160217905550610828806100606000396000f3fe6080604052600436106100595760003560e01c80630a93cf33146100655780632e1a7d4d146100a25780636fbbb55d146100cb5780638da5cb5b146100f6578063be99970514610121578063ee1a567c1461013d57610060565b3661006057005b600080fd5b34801561007157600080fd5b5061008c600480360381019061008791906104ef565b610168565b604051610099919061055d565b60405180910390f35b3480156100ae57600080fd5b506100c960048036038101906100c491906105ae565b6101a8565b005b3480156100d757600080fd5b506100e061022f565b6040516100ed9190610699565b60405180910390f35b34801561010257600080fd5b5061010b610329565b604051610118919061055d565b60405180910390f35b61013b600480360381019061013691906105ae565b61034d565b005b34801561014957600080fd5b506101526104ab565b60405161015f91906106ca565b60405180910390f35b6000600360008360ff16815260200190815260200160002060009054906101000a900473ffffffffffffffffffffffffffffffffffffffff169050919050565b3373ffffffffffffffffffffffffffffffffffffffff166108fc829081150290604051600060405180830381858888f193505050501580156101ee573d6000803e3d6000fd5b507fda947a6fd1395eaf4fabbb404ec3b27fec5e18c1429b1828ee7c3292c362b7946001543383604051610224939291906106e5565b60405180910390a150565b6060600060015467ffffffffffffffff81111561024f5761024e61071c565b5b60405190808252806020026020018201604052801561027d5781602001602082028036833780820191505090505b50905060005b600154811015610321576003600082815260200190815260200160002060009054906101000a900473ffffffffffffffffffffffffffffffffffffffff168282815181106102d4576102d361074b565b5b602002602001019073ffffffffffffffffffffffffffffffffffffffff16908173ffffffffffffffffffffffffffffffffffffffff16815250508080610319906107a9565b915050610283565b508091505090565b60008054906101000a900473ffffffffffffffffffffffffffffffffffffffff1681565b6000339050600260008273ffffffffffffffffffffffffffffffffffffffff1673ffffffffffffffffffffffffffffffffffffffff16815260200190815260200160002060009054906101000a900460ff166104a7576000600160008154809291906103b8906107a9565b9190505590506001600260008473ffffffffffffffffffffffffffffffffffffffff1673ffffffffffffffffffffffffffffffffffffffff16815260200190815260200160002060006101000a81548160ff021916908315150217905550816003600083815260200190815260200160002060006101000a81548173ffffffffffffffffffffffffffffffffffffffff021916908373ffffffffffffffffffffffffffffffffffffffff1602179055507fc26139f85c078b7737d85326385e46368c559b265bc9e5b677dba44568f5dec5600154838560405161049d939291906106e5565b60405180910390a1505b5050565b60015481565b600080fd5b600060ff82169050919050565b6104cc816104b6565b81146104d757600080fd5b50565b6000813590506104e9816104c3565b92915050565b600060208284031215610505576105046104b1565b5b6000610513848285016104da565b91505092915050565b600073ffffffffffffffffffffffffffffffffffffffff82169050919050565b60006105478261051c565b9050919050565b6105578161053c565b82525050565b6000602082019050610572600083018461054e565b92915050565b6000819050919050565b61058b81610578565b811461059657600080fd5b50565b6000813590506105a881610582565b92915050565b6000602082840312156105c4576105c36104b1565b5b60006105d284828501610599565b91505092915050565b600081519050919050565b600082825260208201905092915050565b6000819050602082019050919050565b6106108161053c565b82525050565b60006106228383610607565b60208301905092915050565b6000602082019050919050565b6000610646826105db565b61065081856105e6565b935061065b836105f7565b8060005b8381101561068c5781516106738882610616565b975061067e8361062e565b92505060018101905061065f565b5085935050505092915050565b600060208201905081810360008301526106b3818461063b565b905092915050565b6106c481610578565b82525050565b60006020820190506106df60008301846106bb565b92915050565b60006060820190506106fa60008301866106bb565b610707602083018561054e565b61071460408301846106bb565b949350505050565b7f4e487b7100000000000000000000000000000000000000000000000000000000600052604160045260246000fd5b7f4e487b7100000000000000000000000000000000000000000000000000000000600052603260045260246000fd5b7f4e487b7100000000000000000000000000000000000000000000000000000000600052601160045260246000fd5b60006107b482610578565b91507fffffffffffffffffffffffffffffffffffffffffffffffffffffffffffffffff8214156107e7576107e661077a565b5b60018201905091905056fea26469706673582212201f7b8307640feba0e98f98a59f5d4b805bbbd23b4fe71cd7c589186b7a7e024864736f6c634300080b0033",
  "immutableReferences": {},
  "source": "// SPDX-License-Identifier: MIT\npragma solidity >=0.4.22 <0.9.0;\nimport \"./Owned.sol\";\n// import \"./Logger.sol\";\nimport \"./IFaucet.sol\";\n\ncontract Faucet is Owned, IFaucet {\n    // storing address of all the users that are using addFunds()\n    uint256 public numOffFunders;\n\n    event AddFund(uint256 numOffFunders, address owner, uint256 amount);\n    event WithDrawFund(uint256 numOffFunders, address owner, uint256 amount);\n\n    mapping(address => bool) private funders;\n    mapping(uint256 => address) private lutFunders; // look up table funders\n\n    modifier limitWithdraw(uint256 withdrawAmount) {\n        require(\n            withdrawAmount <= 1000000000000000000,\n            \"Cannot withdraw more than 1 ether\"\n        );\n        _;\n    }\n\n    receive() external payable {}\n\n    // function emitLog() public pure override returns (bytes32) {\n    //     return \"Faucet\";\n    // }\n\n    function addFunds(uint256 amount) external payable override {\n        address funder = msg.sender;\n        // prevent duplicatation\n        if (!funders[funder]) {\n            uint256 index = numOffFunders++;\n            funders[funder] = true;\n            lutFunders[index] = funder;\n            emit AddFund(numOffFunders, funder, amount);\n        }\n    }\n\n    function withdraw(uint256 withdrawAmount) external override {\n        payable(msg.sender).transfer(withdrawAmount);\n        emit WithDrawFund(numOffFunders, msg.sender, withdrawAmount);\n    }\n\n    function getAllFunders() external view returns (address[] memory) {\n        address[] memory _funders = new address[](numOffFunders);\n        for (uint256 i = 0; i < numOffFunders; i++) {\n            _funders[i] = lutFunders[i];\n        }\n        return _funders;\n    }\n\n    function getFunderAtIndex(uint8 index) external view returns (address) {\n        return lutFunders[index];\n    }\n}\n\n// const { ethers } = require('ethers');\n// const instance = await Faucet.deployed();\n// instance.addFunds({from: accounts[0], value: ethers.utils.parseEther('1')});\n// instance.addFunds({from: accounts[1], value: ethers.utils.parseEther('1')});\n// instance.withdraw(\"500000000000000000\", {from: accounts[1]});\n",
  "sourcePath": "/home/mohaiminuleraj/Documents/Project/Blockchain Project/ethereum-faucet/truffle/contracts/FaucetContract.sol",
  "compiler": {
    "name": "solc",
    "version": "0.8.11+commit.d7f03943.Emscripten.clang"
  },
  "schemaVersion": "3.4.6",
  "updatedAt": "2022-03-29T11:01:33.939Z",
  "networkType": "ethereum",
  "devdoc": {
    "kind": "dev",
    "methods": {},
    "version": 1
  },
  "userdoc": {
    "kind": "user",
    "methods": {},
    "version": 1
  }
}