{
  "_format": "hh-sol-artifact-1",
  "contractName": "Verify",
  "sourceName": "contracts/Verify.sol",
  "abi": [
    {
      "inputs": [],
      "stateMutability": "nonpayable",
      "type": "constructor"
    },
    {
      "inputs": [
        {
          "internalType": "bool",
          "name": "sayHello",
          "type": "bool"
        }
      ],
      "name": "hello",
      "outputs": [
        {
          "internalType": "string",
          "name": "",
          "type": "string"
        }
      ],
      "stateMutability": "pure",
      "type": "function"
    }
  ],
  "bytecode": "0x608060405234801561001057600080fd5b5061020f806100206000396000f3fe608060405234801561001057600080fd5b506004361061002b5760003560e01c80632dec019414610030575b600080fd5b61004a600480360381019061004591906100fa565b610060565b60405161005791906101b7565b60405180910390f35b606081156100a5576040518060400160405280600581526020017f68656c6c6f00000000000000000000000000000000000000000000000000000081525090506100b8565b6040518060200160405280600081525090505b919050565b600080fd5b60008115159050919050565b6100d7816100c2565b81146100e257600080fd5b50565b6000813590506100f4816100ce565b92915050565b6000602082840312156101105761010f6100bd565b5b600061011e848285016100e5565b91505092915050565b600081519050919050565b600082825260208201905092915050565b60005b83811015610161578082015181840152602081019050610146565b60008484015250505050565b6000601f19601f8301169050919050565b600061018982610127565b6101938185610132565b93506101a3818560208601610143565b6101ac8161016d565b840191505092915050565b600060208201905081810360008301526101d1818461017e565b90509291505056fea264697066735822122077adfe0641c0a269ffa0acdcd88d3ec8a335633f19c44b9f1a22ade4bd1a938764736f6c63430008110033",
  "linkReferences": {},
  "deployedLinkReferences": {}
}